:020000040800F2
:100000000000082439D100082D0E00082F0E00082A
:10001000310E0008330E0008350E00080000000005
:10002000000000000000000000000000370E000883
:10003000390E0008000000003B0E00083D0E0008CD
:1000400089D1000889D1000889D1000889D1000828
:1000500089D1000889D1000889D1000889D1000818
:1000600089D1000889D1000889D1000889D1000808
:1000700089D1000889D1000889D1000889D10008F8
:1000800089D1000889D1000889D1000889D10008E8
:1000900089D1000889D1000889D1000889D10008D8
:1000A00089D1000889D1000889D1000889D10008C8
:1000B00089D1000889D1000889D1000889D10008B8
:1000C00089D1000889D1000889D1000889D10008A8
:1000D00089D1000889D1000889D1000889D1000898
:1000E00089D1000889D100080000000089D10008EA
:1000F00089D1000889D1000889D1000889D1000878
:1001000089D1000889D1000889D1000889D1000867
:1001100089D1000889D1000889D1000889D1000857
:1001200089D1000889D1000889D1000889D1000847
:1001300089D1000889D1000889D1000889D1000837
:1001400089D1000889D100080000000000000000EB
:1001500089D1000889D1000889D1000889D1000817
:1001600089D1000889D1000889D1000889D1000807
:1001700089D1000889D1000889D1000889D10008F7
:1001800089D1000889D1000889D1000889D10008E7
:1001900089D1000889D1000889D1000889D10008D7
:1001A00089D1000889D1000889D1000889D10008C7
:1001B00089D1000889D1000889D1000889D10008B7
:1001C00089D1000889D1000889D1000889D10008A7
:1001D00089D1000889D1000889D1000889D1000897
:1001E00089D1000889D1000889D1000889D1000887
:1001F00089D1000889D1000889D1000889D1000877
:1002000089D1000889D1000889D1000889D1000866
:1002100089D1000889D1000889D1000889D1000856
:1002200089D1000889D1000889D1000800000000A8
:1002300089D1000889D1000889D1000889D1000836
:1002400089D1000889D1000889D1000889D1000826
:1002500089D1000889D1000889D1000889D1000816
:1002600089D1000889D1000889D1000889D1000806
:1002700089D1000889D1000889D1000889D10008F6
:1002800089D1000889D1000889D100080000000048
:0802900089D1000889D10008A2
:1002A000034613F8012B002AFBD1181A01387047B6
:1002B00001F0FF01102A2BDB10F0070F08D010F817
:1002C000013B013A8B422DD010F0070F42B3F6D11B
:1002D000F0B441EA012141EA014122F007047FF034
:1002E00000070023F0E80256083C85EA010586EA8B
:1002F000010685FA47F5A3FA87F586FA47F6A5FAC7
:1003000087F68EB9EED1F0BC01F0FF0102F00702D2
:1003100032B110F8013B013A83EA010313B1F8D17D
:100320000020704701387047002D06BF354603385E
:10033000073815F0010F07D1013015F4807F02BF97
:10034000013015F4C03F0130F0BC0138704700BFE8
:1003500053B94AB9002908BF00281CBF4FF0FF312C
:100360004FF0FF3000F00CB8ADF1080C6DE904CE91
:100370000EF042F9DDF804E0DDE9022304B0704735
:10038000704700BF10B5054C237833B9044B13B147
:100390000448AFF300800123237010BD244A0024D9
:1003A00000000000B4E8000808B5034B1BB1034986
:1003B0000348AFF3008008BD00000000284A002475
:1003C000B4E800087047000010B5044603F0F0FEE2
:1003D000064B1B68C31A632B00D810BD03F0E8FE60
:1003E000024B1860204600F095F9F6E7844A002495
:1003F00030B585B007F0B9FD0F49002008600F4AFD
:1004000010600F4B18600F4C0F4D02950F4D01956A
:100410000090204609F052FB204609F0E1FB2046FF
:1004200009F0E4FB0A49204609F064FC20460BF081
:100430005BFC05B030BD00BF484A0024444A00249C
:10044000404A00244C4A0024E94F0008D108000823
:10045000C503000810B5054C204600F0A7F805F0CC
:1004600009FF2046FFF7B0FF10BD00BF4C4A002433
:100470000020704700B583B000230193054B1B7823
:100480001BB1019803B05DF804FB01A9024801F01B
:10049000B8FAF6E7904B0024E04A002470B58CB01F
:1004A0000C4630263246002168460DF061F832468F
:1004B000002168460DF05CF82246002303E0116835
:1004C000E9B1013312681AB3032B2DD8516803EB3D
:1004D00043000CAD05EB800040F8301C518940F81A
:1004E0002C1C002BEBD0581E03EB430C0DEB8C01A6
:1004F00000EB400005EB800040F8281CDFE703EB31
:1005000043010CA800EB8101002041F8280CD8E73A
:10051000238907494B60C1F808D04C631422054871
:1005200001F007FA002001E06FF00B000CB070BD85
:10053000A84A0024E04A002408B50146054809F00D
:1005400021FF054B1B78012B00D008BD024B002278
:100550001A70FAE7380D0108904B002408B503F033
:1005600027FE08BD08B5024801F030FC002008BD98
:10057000E04A002408B513460A460146034801F044
:10058000BEFA00B908BD4FF0FF30FBE7E04A002497
:1005900008B513460A460146034801F0E1FA00B9DE
:1005A00008BD4FF0FF30FBE7E04A002438B50546B0
:1005B00000E074B12846FFF75DFF04460028F8D03C
:1005C0002B69294698470028F3D0204606F0CAFA3E
:1005D000EFE738BD08B503F0EBFD08BDF0B58DB011
:1005E00000230793089309930A930B930268434BE4
:1005F0009A4201D00DB0F0BD414BD3F8D82042F45F
:100600000042C3F8D820D3F8D82002F40042009268
:10061000009AD3F8D82042F48032C3F8D820D3F817
:10062000D82002F480320192019AD3F8D82042F403
:100630000032C3F8D820D3F8D82002F40032029256
:10064000029AD3F8E02042F00402C3F8E020D3F885
:10065000E02002F004020392039AD3F8E02042F073
:100660000102C3F8E020D3F8E02002F00102049276
:10067000049AD3F8E02042F00202C3F8E020D3F855
:10068000E02002F002020592059AD3F8E02042F041
:100690004002C3F8E020D3F8E03003F040030693B3
:1006A000069B32230793022708970B260B9607AD6C
:1006B0002946144803F030FB86230793089700244B
:1006C00009940A940B9629460F4803F025FB4FF432
:1006D00000530793089709940A940B9629460B48F0
:1006E00003F01AFB4FF420530793089709940A94D8
:1006F0000B962946064803F00FFB7BE7008002407B
:100700000044025800080258000002580004025831
:10071000001802582DE9F0419AB0044664220021E5
:1007200001A80CF025FF284800F038FC94F831307F
:1007300013F0040F01D0012812DD13F0040F33D1A0
:10074000012831DD831E032B2ED801A252F823F09D
:1007500075070008B9070008AF070008C1070008BF
:100760001A4801F0B6F8204609F05EFA204609F072
:10077000A3FA19E04FF400574FF4804801AE134D2F
:100780003146284601F020FA0797CDF81880314607
:10079000284601F00CFB284601F05CF8204609F0E1
:1007A00025FA204609F060FA1AB0BDE8F0814FF44E
:1007B00000574FF00008E1E700274FF48048DDE7DD
:1007C0000027B846DAE700BF884A0024E04A002440
:1007D0002DE9F04182B00446354D364B2B600027A1
:1007E0008DF8007080238DF80130E1238DF8023000
:1007F0008DF8037013238DF8043037238DF80530FE
:10080000C5F804D001232B722B4BEB602B4B2B61D3
:100810004FF4C0636B61284601F00CFB8046284E04
:100820003822394630460CF0A3FE212333604FF4C2
:1008300040337361234809F051FD062384F83030BA
:100840006B681A7884F82A205A7884F82B209A78D2
:1008500084F82C20DA7884F82D201A7984F82E2058
:100860005B7984F82F3040F2DC53238594F83130E3
:1008700043F00A0384F83130134D1449284600F040
:100880003FFB284600F05BFB40B9B8F1000F0CD1EC
:100890002046FFF73FFF02B0BDE8F081204609F097
:1008A0000BFA204609F0C0F9F5E700F0D3F9F2E7BA
:1008B000E04A002400800240600004300000043060
:1008C000A84A0024380D0108884A002400000024AA
:1008D00010B5044670B1732384F83230742384F861
:1008E0003330084B6361084BA3612046FFF770FF6C
:1008F000002010BD054B4FF4CA72054905480CF0A5
:1009000045FDE8E785C600089D040008CCE800081E
:10091000F4E8000804E9000810B582B004460E4867
:1009200009F000FD88B1034600F1200222600B4A65
:1009300002614FF4C06201922268009241220021BC
:10094000084606F0A5F802B010BD054B01221A704A
:1009500000232360F7E700BF380D010839050008C0
:10096000904B002430B4A2F12004002542F8205C12
:1009700022F8185C22F8163C056825B10D682C6039
:100980000C60016805E00460FAE7088918440881F2
:1009900009680029F9D183B1114602F01F021344FE
:1009A000BFF34F8F064AC2F85C122031203B002B68
:1009B000F8DCBFF34F8FBFF36F8F30BC704700BFC1
:1009C00000ED00E00CB42DE9F0419CB003788B42BF
:1009D0006AD80C46037A002B66D179B101EB41024B
:1009E000354B03EB82039B6800934368334A6421D1
:1009F00003A80CF0DDFC62280BDC00E0002023AB38
:100A00000293229AC0F164010DF10C0C60440CF0C9
:100A100077FD2B4B1B78A34202D8294B1B7A4BB393
:100A2000274B1B7BA3423FD8254B1B7D002B3BD183
:100A3000244B1D785DBB244E34686423234F03FB95
:100A400004770DF10C084046FFF72AFC02464146A8
:100A500038460CF095FD621C1D4981FB0231D3170D
:100A6000C3EB610303EB8303D31A3360CDB903BB3C
:100A7000012217E003AD2846FFF712FC4FF0FF33C9
:100A800082B229461348006804F0AEF8C8E70E4B5E
:100A90001868642200210D4B02FB00300CF068FD49
:100AA000C9E70122074B1A701CB0BDE8F04102B043
:100AB00070470022F6E700BF440D01082CE900084A
:100AC00014000024984B00249C4B0024A04B0024CD
:100AD00067666666C04D002410B504460B4602707A
:100AE000416000220272064A04210648FFF76AFFAD
:100AF000054A1368054941F823400133136010BDCE
:100B000038E90008C44D0024944D0024984D002479
:100B100010B582B00B4B18600B4B01934FF0FF33B5
:100B200004220DEB020104F05FF8084C052208498D
:100B30002046FFF7D1FF074A05212046FFF742FF75
:100B400002B010BDC04D00240D0A0D0AC44D002492
:100B50004CE9000850E900082DE9F0418CB007ADE0
:100B600000240794089409940A940B94364BD3F804
:100B7000E02042F00402C3F8E020D3F8E02002F0C5
:100B800004020192019AD3F8E02042F00102C3F876
:100B9000E020D3F8E02002F001020292029AD3F89A
:100BA000E02042F00202C3F8E020D3F8E02002F097
:100BB00002020392039AD3F8E02042F00802C3F83D
:100BC000E020D3F8E02002F008020492049AD3F85F
:100BD000E02042F04002C3F8E020D3F8E02002F029
:100BE00040020592059AD3F8E02042F01002C3F8C3
:100BF000E020D3F8E03003F010030693069BDFF803
:100C0000508022464FF48041404603F095F90F4E44
:100C100022460221304603F08FF94FF480430793B8
:100C20000127089709940A942946404603F074F86E
:100C300002230793089709940A942946304603F043
:100C40006BF80CB0BDE8F081004402580010025867
:100C50000004025808B572B64FF48041014803F011
:100C600071F9FEE70004025808B51548154B0360FA
:100C70004FF4E133436000238360C36003610C22BF
:100C800042618361C36103624362836204F079F865
:100C900070B900210A4804F0ECF858B9002108485E
:100CA00004F00CF940B9064804F0C4F830B908BDA6
:100CB000FFF7D0FFFFF7CEFFFFF7CCFFFFF7CAFF2C
:100CC000DC4D00240048004000B59DB04C220021BE
:100CD00009A80CF04DFC2022002101A80CF048FCD2
:100CE000042003F051F900230093254BDA6A22F027
:100CF0000102DA62DB6A03F001030093214B9A6977
:100D000042F440429A619B6903F440430093009B84
:100D10001C4B9B6913F4005FFAD002230993012254
:100D20000C9240220D9212930022139204211491EE
:100D3000322115911693179318930C2319931A9235
:100D40001B9209A801F02CF9B0B93F2301930323AA
:100D500002930023039308230493402305930693EF
:100D60004FF4806207920893022101A801F06CFD04
:100D700020B91DB05DF804FBFFF76CFFFFF76AFFB9
:100D8000000400580048025810B582B003F0D6F9AC
:100D9000FFF79AFF1F4BD3F8E02042F00072C3F830
:100DA000E020D3F8E03003F000730193019B0020B2
:100DB00003F0D2F80021084603F0DEF84FF6FF7387
:100DC00000E01346134A126812F4004F03D15A1E72
:100DD000002BF6DC1346002B1ADBFFF7BDFEFFF7F6
:100DE00043FFFFF705FB0C48FFF792FE0B4C052273
:100DF0000B492046FFF770FE0A4A05212046FFF7FF
:100E0000E1FD0221084803F09DF8FFF723FBFCE712
:100E1000FFF720FF00440258DC4D0024D04D002491
:100E20000CEA000814EA000800100258FEE7FEE78A
:100E3000FEE7FEE7FEE770477047704708B503F02E
:100E4000ABF908BD82B0074BD3F8F42042F00202A0
:100E5000C3F8F420D3F8F43003F002030193019BAC
:100E600002B070470044025810B5B8B004460021E3
:100E700033913491359136913791C02202A80CF00C
:100E800077FB22681B4B9A4201D038B010BD02227A
:100E90000023CDE9022302A801F06EFF38BB164BF8
:100EA000D3F8E82042F48022C3F8E820D3F8E82001
:100EB00002F480220092009AD3F8E02042F0080267
:100EC000C3F8E020D3F8E03003F008030193019B5E
:100ED0004FF44073339302233493002335933693B6
:100EE0000723379333A9054802F016FFCDE7FFF734
:100EF000B1FED4E70048004000440258000C0258FC
:100F000088B1CA6892B18A689AB10A69A2B10A68BE
:100F100082604A68C260CA6842618A6802610A697E
:100F20008261002070474FF0FF3070474FF0FF3074
:100F300070474FF0FF3070474FF0FF30704770B58B
:100F400082B00023019344680CBB0546836803B15B
:100F5000984720232B60002602E06FF0040601343E
:100F60001F2C0DD86B6901AA122120469847002832
:100F7000F3DB019B03F01F03A342F0D12C6000269A
:100F80002B681F2B07D81EB901236B6000E00026D9
:100F9000304602B070BD6FF00206F9E710B582B0BE
:100FA000044600230193436901AA01210068984780
:100FB000002839DB636901AA0121206898470028CD
:100FC00035DB019B13F0040F34D0636901AA0021C3
:100FD00020689847002830DB019B13F4805F0CD118
:100FE00003F40452B2F5045F2AD013F4005F29D150
:100FF00013F4807F28D004201DE0636901AA1F211B
:1010000020689847002821DB019B13F4805F20D0E3
:1010100003F01C03182B1ED0082B1ED0142B01D05C
:10102000052008E0042006E06FF0040003E06FF004
:10103000040000E0012002B010BD6FF00400FAE7E8
:101040000220F8E70320F6E70520F4E76FF004003C
:10105000F1E70620EFE70220EDE70320EBE72DE9BB
:10106000F04182B0074600230193D0F8688008F170
:10107000120350F82340C56E012613E001A8FFF7C4
:101080004BFC019B13B12361236010E000260EE0AE
:101090004FF00143E36012E003F1120257F82240DF
:1010A000013D984695B18EB12369002BE6D0002E04
:1010B000F8D0BB6D002BEBD04FF04143E36008F15B
:1010C0000103032BE8D9A8F10303E5E7FB6EAB426C
:1010D00012D008F1010303F00303BFF35F8F3A69F5
:1010E00003EB430302EBC3023B6803F58053C3F8F1
:1010F0002821C7F86880FD6602B0BDE8F0810000D5
:1011000030B48B680A6813430A7943EAC2630A7BE6
:1011100043EAC2534A7B43EA82538A7B43EA4253FF
:10112000CA7B43EA02530A7C002A40F0B0804FF4A5
:10113000002213434A7C002A40F0AB804FF4003277
:1011400013438A7C43EA02434A6913438A6913437F
:101150000A7F43EA02334A7F43EAC2238A7F002A96
:1011600040F099804FF480621343CA7F43EA4223E0
:1011700091F82020002A40F090804FF480721343B1
:101180004A6A134391F8282043EA0213CA6A1343B8
:101190000468226822F07F4222F47B0222F4FE429D
:1011A00022F07C0213432360CA6B91F838301B068F
:1011B00043EA426391F8302043EA824391F83120B8
:1011C00043EA424391F83220002A68D14FF480323A
:1011D00013434A6B13430468626822F07C5222F482
:1011E000EF2222F4FF6222F007021343636091F8BA
:1011F00040204B6C43EA02220468E5682B4B2B40ED
:101200001343E36091F854200B6D43EA420391F8D5
:101210004C20002A45D1802213438A6C43EA0243C2
:101220000468226F22F0F2021204120C13432367A7
:1012300091F8562091F8553042EA43020468D4F8F8
:10124000903023F003031343C4F890300268D2F8BF
:10125000003D23F072038C6D2343C2F8003DCB6D3B
:1012600091F86020FAB94022134391F8612043EAD3
:10127000021391F8622043EAC2030168D1F8302DCD
:1012800022F07B021343C1F8303D30BC704700228E
:101290004FE7002254E7002266E700226FE70022B2
:1012A00096E70022B8E70022DEE700BFF0FEFFFF6E
:1012B00010B4026802F580521468234B23400C6876
:1012C000234313600A798B6843EA02330A7B43EABB
:1012D000C232036803F5805CDCF804401B4B2340FA
:1012E0001343CCF804304A7B0B6A43EA024C026891
:1012F00002F58052D2F80041154B234043EA0C031B
:10130000C2F800310B690A7D43EA02134A7F43EABF
:101310000232036803F5805CDCF804410D4B234086
:101320001343CCF804310B7F896941EAC371026829
:1013300002F58052D2F80801074B03400B43C2F874
:1013400008315DF8044B7047FD87FFFFFE2FFFFF5C
:1013500000C0FEFFEFEFC0FFFFFFC07F70B5A2B07F
:10136000064601258DF83350002412948DF8414033
:101370008DF843408DF828508DF856508DF8325036
:101380008DF84C408DF884504FF400530F938DF836
:101390005C4018948DF885408DF886404FF4C36307
:1013A00016938DF830400B948DF835508DF83640FB
:1013B0008DF840401D941B9414948DF864408DF872
:1013C0007A408DF84250202320938DF844508DF8B8
:1013D00055404FF0405309934FF480430E938DF8DE
:1013E000314002231F938DF878408DF879408DF8B5
:1013F00054408DF834501A948DF8705009A9FFF7B5
:101400007FFE8DF80450029500948DF81C408DF8F5
:101410000D408DF80C404FF4001306938DF81440E6
:1014200004938DF81D404FF40673089369463046C7
:10143000FFF73EFF22B070BD10B4002210E0C46878
:1014400002EB42034FEAC30C04EBC303002144F850
:101450000C1059609960D960911D40F8213001321B
:10146000032AECD900238362036803F58053032227
:10147000C3F82C21C268036803F58053C3F8142114
:10148000C268036803F58053C3F820215DF8044B5C
:10149000704710B4002113E0046901EB41034FEAE7
:1014A000C30C04EBC303002244F80C205A609A607A
:1014B000DA601A615A6101F1120240F822300131FA
:1014C0000329E9D90023C36503668366C366836580
:1014D000036803F580530322C3F8302102690368CF
:1014E00003F58053C3F81C21036903F14802036824
:1014F00003F58053C3F828215DF8044B70470000C2
:101500002DE9F0419046846A00EB84039B69D1F891
:1015100008C0DA68002AC0F29281221D00EB820224
:10152000D269002A40F08D810A6812F0040F2CD095
:10153000DA686FF30F024D6A2A43DA60DA6842F420
:101540008032DA6005682A6E42F480122A660A68E0
:1015500012F0080F19D09A6892B2CD6A42EA054299
:101560009A60DA6842F40032DA60DA6822F44022E3
:101570000D6B2A43DA6005686A6E42F480126A666F
:1015800005682A6D42F080622A650A6812F0100F21
:1015900009D09A686FF30D028D692A439A60DA6860
:1015A00042F08062DA600A6812F0140220D0DA6831
:1015B00042F08042DA60BFF35F8FDA6842F00042A7
:1015C000DA60661C032E00D9E61E00EB86039B69D9
:1015D000DA68002A01DB01220BE000EB8404A26937
:1015E000BFF35F8FD36823F00043D360022029E16B
:1015F000264602F1010EDCF800201A609A686FF3AB
:101600000D02DCF804502A439A60DCF80820002A16
:1016100048D015685D609D68DFF82CC205EA0C0CA7
:1016200055684CEA05459D600D6815F0100F41D0D6
:10163000DD6825F4F00C0D6A4CEAC545DD60DD6817
:10164000DFF808C205EA0C0CCD694CEA0505DD603F
:10165000DD6845F48025DD600D6815F0040F06D0C7
:101660009D6825F4404C8D6A4CEA05059D60DD6857
:1016700045F00055DD60DD6825F08045DD60BFF395
:101680005F8FDD6845F00045DD600D6815F0020FE5
:1016900006D0DD6825F0607CCD684CEA0505DD608C
:1016A000002564E000225A609A686FF31D429A6038
:1016B0006246B9E7DD68DFF898C105EA0C0C4D68B1
:1016C0004CEA0505DD600D6815F0010F06D0DD68F8
:1016D00025F4403C4D694CEA0505DD600D6815F0C8
:1016E000200FB9D0DD6825F0406C0D694CEA050586
:1016F000DD60B1E700EB84039969002204E000EBB0
:101700008301896901321C4672450AD2BFF35F8F9B
:10171000CB6823F00043CB60631C032BEFD9E31E9F
:10172000EDE702208EE000225A609A686FF31D42B6
:101730009A603A4651E0DE686FF30E064F683E430A
:10174000DE600E6816F0010F05D0DE6826F4403624
:101750004F693E43DE600135BFF35F8FDE6846F0C0
:101760000046DE60DE6826F08046DE6066469768EA
:10177000002F41D0DF6827F08057DF6006F1010CB1
:10178000BCF1030F01D9A6F1030C00EB8C039B699C
:10179000DE6826F00056DE60DE68002EAADB0CF163
:1017A000040600EB8606F669002EA3D10EF1010EA9
:1017B00097683A681A609E686FF30D067A6832433C
:1017C0009A60BA68002AAED016685E609E686FF3B1
:1017D0001D46576846EA07469E600E6816F0100FD1
:1017E000A9D0DE686FF31106CF693E43DE60DE6884
:1017F00046F48026DE60AEE7B8F1000F1AD09A6892
:1018000042F000429A60DA6842F08052DA60C26BBD
:10181000331D00EB8303DA618662EFF3108201234C
:1018200083F31088036C2B440133036482F3108824
:10183000002007E09A6822F000429A60E3E7022065
:1018400000E00220BDE8F081FFFF00C00000FCFFC7
:101850000080FFFF38B5D0F88430102B01D0012074
:1018600038BD04462325C0F884500423C366FFF71F
:10187000F6FB2268136843F00203136022681368C2
:1018800043F0010313602268D2F8003D43F00103E6
:10189000C2F8003D236803F58053D3F8042142F0D9
:1018A0000102C3F80421236803F58053D3F808210B
:1018B00042F00102C3F80821236803F58053D3F8EE
:1018C000602142F48172C3F86021C4F88450002082
:1018D000C6E7D0F88430232B01D001207047C0F830
:1018E0008430036803F58053D3F8042122F0010209
:1018F000C3F80421036803F58053D3F8082122F0CC
:101900000102C3F808210268136823F00103136081
:101910000268D2F8003D43F00103C2F8003D0268BE
:10192000136823F0020313601023C0F884300020F2
:101930007047F8B5044631B11546D4F88430232BEE
:1019400009D00120F8BDD0F8883043F00103C0F879
:1019500088300120F6E700222046FFF7D1FD00285D
:1019600037D1BFF34F8FA36A9A1D54F822605A1CD7
:10197000A262032A01D9033BA362A26A236806324A
:1019800054F8222003F58053C3F8202102F010FC04
:101990000746F368002B32DA236803F58052D2F849
:1019A000602112F4805F1CD1B5F1FF3FF1D002F04D
:1019B000FFFBC01BA84201D8002DEAD1D4F8883023
:1019C00043F00403C4F888304FF04053F360012023
:1019D000B8E7D4F8883043F00203C4F88830012017
:1019E000B0E7D4F8882042F00802C4F8882003F554
:1019F0008053D3F86031C4F88C300120A2E7002076
:101A0000A0E72DE9F84F044689B18B46D0F8843021
:101A1000232B71D1D0F85C8008F1120350F82350C9
:101A2000C36EC3F1040A4FF000094F4637E0D0F807
:101A3000883043F00103C0F8883001205DE0EB6896
:101A400013F0005F02D0002323666366EE68C6F3DE
:101A50000E06636EF61AEB6813F0805F03D0EB6836
:101A600023674FF00109B3B22A6904F1800104F140
:101A70007C00FEF777FF236E01332366636E3344E9
:101A8000636600232B6108F10103032B01D9A8F140
:101A9000030303F1120254F8225001379846EB6811
:101AA000002B14DB89F00103574510D27BB1EB68A2
:101AB00013F0804F03D06B68A3672B686367EB68F4
:101AC00013F0005FBBD1E36F002BB8D1DBE7E36E0F
:101AD0003B44E36633B9C4F85C80B9F1000F05D12B
:101AE00001200AE02046FFF7BAFAF4E7E36FCBF8EB
:101AF00000300020E06700E00120BDE8F88F70B5FD
:101B000004461D460068D0F8003213F0010F01D0E2
:101B1000012070BDD0F8003223F0787343EA4151C0
:101B200021F4F81343EA024242F00D02C0F8002209
:101B300002F03EFB06462268D2F8001211F0010FB7
:101B400007D002F035FB821BB2F57A7FF3D9012072
:101B5000DFE7D2F804329BB22B600020D9E7000007
:101B600038B504460068D0F8005215F0010F01D0D6
:101B7000012038BDD0F8000220F0787040EA4151D1
:101B800021F4F81141EA024222F00C0242F005026F
:101B90009BB20C49C1F80432C1F8002202F008FBE4
:101BA00005462368D3F8003213F0010F07D002F086
:101BB000FFFA431BB3F57A7FF3D90120D9E7002060
:101BC000D7E700BF00800240002900F0EE800268E5
:101BD000126802F00C02CA6202681268C2F30012B4
:101BE00081F828200268126802F060024A620268E6
:101BF000126802F48072B2FA82F2520981F820204F
:101C000002681268C2F34022CA770268126802F4BE
:101C10008062B2FA82F252098A7702681268C2F3CD
:101C2000C0224A7702681268C2F300320A7702685B
:101C3000126802F400528A610268126802F480425B
:101C40004A6102681268C2F300428A74026812682C
:101C500002F40032B2FA82F252094A74026812683F
:101C600002F40022B2FA82F252090A74026812687F
:101C7000C2F30052CA7302681268C2F340528A73F8
:101C800002681268C2F380524A7302681268C2F393
:101C9000C0520A730268126802F0E0628A60026849
:101CA0001268C2F3C0620A710268126802F0E04270
:101CB0000A6002685268C2F30D024A630268526801
:101CC00002F48032B2FA82F2520981F832200268BC
:101CD0005268C2F3404281F8312002685268C2F370
:101CE000804281F8302002685268C2F3006281F8B5
:101CF000382002685268C2F34462CA630268D2683C
:101D0000C2F3002281F840200268D26802F00F027C
:101D10004A640268126FC2F3400281F854200268DC
:101D2000126F02F08002B2FA82F2520981F84C205E
:101D30000268126F02F070020A650268126F120CDC
:101D40008A640268D2F8902002F0010281F85620DD
:101D50000268D2F89020C2F3400281F85520026850
:101D6000D2F8002D02F072028A650268D2F8302D96
:101D700002F02302CA650268D2F8302DC2F3C00215
:101D800081F862200268D2F8302DC2F3001281F887
:101D900061200268D2F8302D02F04002B2FA82F2DD
:101DA000520981F86020002070470120704751B12E
:101DB00008B5D0F88430102B01D0012008BDFFF702
:101DC0009FF90020FAE701207047000038B505466A
:101DD0000368D3F8004224F4706400F07FFE104BD7
:101DE000984205D844F400742B68C3F8004238BD0B
:101DF0000C4B984202D244F44074F5E70A4B9842E7
:101E0000F2D90A4B984202D844F48074ECE7084BAC
:101E1000984202D844F48064E6E744F4A064E3E71F
:101E2000BF0E160200879303FFE0F5057FD1F0088F
:101E30007FB2E60E002800F0A78030B583B00446DC
:101E4000D0F884309BB3514BD3F8F42042F0020217
:101E5000C3F8F420D3F8F43003F002030193019B9C
:101E6000237A53BB002002F0AFF9494B5B6823682B
:101E700003F580531A6842F001021A6002F098F9E3
:101E80000546236803F580531B6813F0010F19D032
:101E900002F08EF9401BB0F5FA7FF2D90423C4F8A2
:101EA0008830E023C4F88430012003B030BD232300
:101EB000C0F88430FEF792FBC5E74FF4000002F053
:101EC00083F9D2E72046FFF781FF00F007FE314B90
:101ED000A3FB00239B0C2268013BC2F8DC302046A8
:101EE000FFF73CFA226802F58052D2F8003123F461
:101EF000E01343F40023C2F80031626912F0030FCB
:101F000006D00120C4F88800E023C4F88430CCE770
:101F1000216801F58051D1F808316FF34E0343EA8F
:101F20004203C1F808312046FFF786FA2046FFF742
:101F3000B0FA636859791B79226843EA0123C2F831
:101F400000336268D17893781B0443EA01635178C7
:101F500043EA0123117822680B43C2F80433226854
:101F6000D2F80C170C4B0B43C2F80C372268D2F88E
:101F700010170A4B0B43C2F810370020C4F8880032
:101F80001023C4F8843090E70120704700440258C1
:101F90000004005883DE1B436000020C00C0200CCC
:101FA000002800F0398338B50446036813F0010FA8
:101FB00025D0944A136903F03803926A102B15D088
:101FC000182B0FD06368B3F5803F3FD0002B53D15F
:101FD0008C4B1A6822F480321A601A6822F480222C
:101FE0001A6038E002F00302022AEBD1854B1B682D
:101FF00013F4003F03D06368002B00F00F832368C5
:1020000013F0020F00F0A1807E4A1369926A13F068
:1020100038035AD0182B55D0E368002B00F0DE802F
:1020200078490A6822F0190213430B6002F0C0F8E5
:102030000546744B1B6813F0040F40F0AD8002F0AE
:10204000B7F8401B0228F4D90320EEE26D4A13686A
:1020500043F48033136063682BB302F0A9F805469C
:10206000684B1B6813F4003FC9D102F0A1F8401B74
:102070006428F5D90320D8E2B3F5A02F09D0614B2D
:102080001A6822F480321A601A6822F480221A60D8
:10209000E1E75C4B1A6842F480221A601A6842F445
:1020A00080321A60D7E702F083F80546554B1B686B
:1020B00013F4003FA3D002F07BF8401B6428F5D94D
:1020C0000320B2E212F0030FA6D14E4B1B6813F0AF
:1020D000040F03D0E368002B00F0A282494A136882
:1020E00023F01903E1680B43136002F061F8054621
:1020F000444B1B6813F0040F06D102F059F8401B43
:102100000228F5D9032090E202F058F841F20303C7
:10211000984212D82269402A07D03A494B6823F4E2
:102120007C3343EA02334B600FE0364A536823F4B2
:102130007C3343F40033536007E0324A536823F0A2
:10214000FE43216943EA01635360236813F0100FD3
:1021500000F088802B4A136903F03803926A082B39
:1021600056D0182B50D0E369002B00F0B880254AD8
:10217000136843F08003136002F01AF80546214B00
:102180001B6813F4807F40F0888002F011F8401B38
:102190000228F4D9032048E202F010F841F20303C8
:1021A000984212D82269402A07D016494B6823F476
:1021B0007C3343EA02334B60C7E7124A536823F487
:1021C0007C3343F400335360BFE70E4A536823F077
:1021D000FE43216943EA01635360B6E7094A136885
:1021E00023F00103136001F0E3FF0546054B1B6874
:1021F00013F0040FA9D001F0DBFF401B0228F5D932
:10220000032012E20044025802F00302012AAAD17C
:10221000A14B1B6813F4807F03D0E369802B40F04F
:10222000018201F0CBFF41F20303984212D8226AE7
:10223000202A07D098494B6823F0F84343EA826389
:102240004B600FE0944A536823F0F84343F0804317
:10225000536007E0904AD36823F07C53216A43EA35
:102260000163D360236813F0080F60D06369002B0B
:1022700049D0894A536F43F00103536701F098FF37
:102280000546854B5B6F13F0020F50D101F090FFB4
:10229000401B0228F5D90320C7E101F08FFF41F26E
:1022A0000303984212D8226A202A07D07A494B6841
:1022B00023F0F84343EA82634B60D3E7764A5368DE
:1022C00023F0F84343F080435360CBE7724AD3686E
:1022D00023F07C53216A43EA0163D360C2E76E4A6C
:1022E000136823F08003136001F062FF05466A4B18
:1022F0001B6813F4807FB5D001F05AFF401B022801
:10230000F5D9032091E1644A536F23F00103536729
:1023100001F04EFF0546604B5B6F13F0020F06D0D5
:1023200001F046FF401B0228F5D903207DE1236818
:1023300013F0200F29D0A3699BB1574A136843F4C7
:102340008053136001F034FF0546534B1B6813F4B0
:10235000005F1AD101F02CFF401B0228F5D90320A1
:1023600063E14D4A136823F48053136001F020FFAA
:102370000546494B1B6813F4005F06D001F018FFB7
:10238000401B0228F5D903204FE1236813F0040F06
:1023900021D1636A002B00F047813F4A126902F0A5
:1023A0003802182A00F0EE80022B79D03A4A1368DE
:1023B00023F08073136001F0FBFE0446364B1B686C
:1023C00013F0007F00F0DC8001F0F2FE001B022819
:1023D000F4D9032029E1314A136843F48073136070
:1023E00001F0E6FE05462D4B1B6813F4807F06D1F5
:1023F00001F0DEFE401B6428F5D9032015E1A36837
:10240000012B0AD00BBB244B1A6F22F001021A6772
:102410001A6F22F004021A6704E01F4A136F43F098
:1024200001031367A36833B301F0C2FE05461A4BDC
:102430001B6F13F0020FACD101F0BAFE401B41F24A
:1024400088339842F3D90320EFE0052B09D0124BD3
:102450001A6F22F001021A671A6F22F004021A673B
:10246000E0E70D4B1A6F42F004021A671A6F42F050
:1024700001021A67D6E701F09BFE0546064B1B6F6B
:1024800013F0020F85D001F093FE401B41F2883318
:102490009842F3D90320C8E000440258004802588B
:1024A000694A136823F08073136001F081FE0546CA
:1024B000654B1B6813F0007F06D001F079FE401BCE
:1024C0000228F5D90320B0E05F4B996A5F4A0A40C1
:1024D000A16AE06A41EA00110A439A62226B013A5A
:1024E000C2F30802616B0139490289B20A43A16B48
:1024F0000139090401F4FE010A43E16B01390906BF
:1025000001F0FE410A431A63DA6A22F00102DA623C
:102510005A6B6FF3CF02A16C42EAC1025A63DA6AC6
:1025200022F00C02216C0A43DA62DA6A22F002021B
:10253000616C0A43DA62DA6A42F48032DA62DA6A99
:1025400042F40032DA62DA6A42F48022DA62DA6A4B
:1025500042F00102DA621A6842F080721A6001F0F9
:1025600027FE0446384B1B6813F0007F06D101F0AC
:102570001FFE001B0228F5D9032056E0002054E07E
:10258000002052E0304A916A106B012B4ED001F0CE
:102590000303A26A93424BD1C1F30511E36A994246
:1025A00048D1C0F30802236B013B9A4244D1C0F3E7
:1025B0004622636B013B9A4240D1C0F30642A36BB3
:1025C000013B9A423CD1C0F30660E36B013B984269
:1025D00038D11D4B5B6BC3F3CC03A26C9A4201D183
:1025E000002022E0184AD36A23F00103D36201F0ED
:1025F000DFFD054601F0DCFDA842FBD0124A536B1B
:102600006FF3CF03A16C43EAC1035363D36A43F072
:102610000103D362002008E001207047012004E09C
:10262000012002E0012000E0002038BD0120FCE78D
:102630000120FAE70120F8E70120F6E70120F4E79E
:102640000120F2E70120F0E7004402580CFCFFFFF4
:10265000754B1B6903F03803102B00F0DE80182B3C
:102660000FD0002B40F0DB806F4B1B6813F0200F66
:1026700000F0D7806C4B1B68C3F3C1036B48D84094
:10268000704710B4684B9A6A02F003029C6AC4F364
:102690000510D96A01F001015B6BC3F3CC0301FBA8
:1026A00003F307EE903AF8EE677A14F47C7F77D064
:1026B000012A4AD0022A76D0002A40F091805A4B53
:1026C0001B6813F0200F23D057490A68C2F3C102D8
:1026D000564BD34007EE103AF8EE476A07EE100A61
:1026E000B8EE476A86EE867A0B6BC3F3080306EEF4
:1026F000903AF8EE666A9FED4E6A67EE867A76EE5D
:10270000A77AF7EE006A77EEA67A27EE277A38E006
:1027100007EE100AF8EE476A9FED466A86EE267AC3
:10272000414B1B6BC3F3080306EE903AF8EE666A62
:102730009FED3F6A67EE867A76EEA77AF7EE006A3B
:1027400077EEA67A27EE277A1BE007EE100AF8EE5E
:10275000476A9FED396A86EE267A334B1B6BC3F3CB
:10276000080306EE903AF8EE666A9FED316A67EE6E
:10277000867A76EEA77AF7EE006A77EEA67A27EEEB
:10278000277A294B1B6BC3F34623013307EE903A9C
:10279000F8EE677AC7EE276AFCEEE67A17EE900A43
:1027A0005DF8044B704707EE100AF8EE476A9FED9C
:1027B000236A86EE267A1C4B1B6BC3F3080306EED6
:1027C000903AF8EE666A9FED1A6A67EE867A76EEC0
:1027D000A77AF7EE006A77EEA67A27EE277AD0E797
:1027E00007EE100AF8EE476A9FED136A86EE267A26
:1027F0000D4B1B6BC3F3080306EE903AF8EE666AC6
:102800009FED0B6A67EE867A76EEA77AF7EE006A9E
:1028100077EEA67A27EE277AB3E70948704709488A
:1028200070470248704700BF004402580090D00330
:10283000000000390024744C0024744A20BCBE4BB4
:1028400040787D0100093D00002800F0328170B51C
:102850000D4604469B4B1B6803F00F038B420BD2C3
:10286000984A136823F00F030B431360136803F0B7
:102870000F038B4240F01F81236813F0040F0CD02C
:102880002269914B9B6903F070039A4205D98E49E6
:102890008B6923F070031A438A61236813F0080FD1
:1028A0000CD06269884BDB6903F070039A4205D94A
:1028B0008549CB6923F070031A43CA61236813F07A
:1028C000100F0CD0A269804BDB6903F4E0639A42DD
:1028D00005D97D49CB6923F4E0631A43CA612368B3
:1028E00013F0200F0CD0E269774B1B6A03F07003E2
:1028F0009A4205D974490B6A23F070031A430A629D
:10290000236813F0020F0CD0E2686F4B9B6903F051
:102910000F039A4205D96C498B6923F00F031A43C0
:102920008A61236813F0010F41D0674A936923F449
:102930007063A1680B4393616368022B0AD0032B79
:1029400027D0012B2CD0604A126812F0040F06D158
:102950000120ADE0126812F4003F00F0AE805A4949
:102960000A6922F0070213430B6101F021FC0646BD
:10297000554B1B6903F038036268B3EBC20F16D0E6
:1029800001F016FC801B41F288339842F0D90320F5
:102990008EE04D4A126812F0007FE0D1012087E0FE
:1029A000494A126812F4807FD9D1012080E023685F
:1029B00013F0020F0CD0E268434B9B6903F00F0346
:1029C0009A4205D240498B6923F00F031A438A616A
:1029D0003C4B1B6803F00F03AB420AD9394A13681A
:1029E00023F00F032B431360136803F00F03AB4274
:1029F00065D1236813F0040F0CD02269324B9B6918
:102A000003F070039A4205D22F498B6923F07003BB
:102A10001A438A61236813F0080F0CD062692A4BAD
:102A2000DB6903F070039A4205D22749CB6923F092
:102A300070031A43CA61236813F0100F0CD0A26907
:102A4000214BDB6903F4E0639A4205D21E49CB694E
:102A500023F4E0631A43CA61236813F0200F0CD0FB
:102A6000E269194B1B6A03F070039A4205D21649BA
:102A70000B6A23F070031A430A62FFF7E9FD12495B
:102A80008B69C3F30323114AD35C03F01F03D840BF
:102A90008B6903F00F03D35C03F01F0320FA03F3E9
:102AA0000B4A13600B4B18600B4B186801F01EFBB0
:102AB00070BD012070470120FAE70120F8E70120EE
:102AC000F6E700BF0020005200440258FC0D010848
:102AD00034000024380000243000002408B5FFF73B
:102AE000B7FD0B4A9369C3F303230A49CB5C03F098
:102AF0001F0320FA03F3926902F00F02885C00F0D2
:102B00001F0023FA00F0044A1060044A136008BD55
:102B100000440258FC0D0108340000243800002451
:102B200008B5FFF7DBFF054BDB69C3F30213044A6B
:102B3000D35C03F01F03D84008BD00BF0044025817
:102B4000FC0D010808B5FFF7C9FF054BDB69C3F3AE
:102B50000223044AD35C03F01F03D84008BD00BF22
:102B600000440258FC0D0108404B9B6A03F003032C
:102B7000032B79D070B505460E463C4A136823F006
:102B80008063136001F014FB0446384B1B6813F09C
:102B9000006F06D001F00CFB031B022BF5D90320BC
:102BA00070BD324B9A6A22F47C32296842EA0132C3
:102BB0009A626A68013AC2F30802A96801394902B7
:102BC00089B20A43E9680139090401F4FE010A43A4
:102BD00029690139090601F0FE410A439A63DA6A5C
:102BE00022F0C00269690A43DA62DA6A22F020023E
:102BF000A9690A43DA62DA6A22F01002DA62DA6B51
:102C00006FF3CF02E96942EAC102DA63DA6A42F09D
:102C10001002DA62C6B91A46DB6A43F40023D362B3
:102C2000124A136843F08063136001F0C1FA04464E
:102C30000E4B1B6813F0006F14D101F0B9FA001BA2
:102C40000228F5D90320ABE7012E05D0074AD36A45
:102C500043F40013D362E3E7044AD36A43F48013D6
:102C6000D362DDE700209BE7012070470044025853
:102C7000404B9B6A03F00303032B79D070B50546E4
:102C80000E463C4A136823F08053136001F090FA1B
:102C90000446384B1B6813F0005F06D001F088FA39
:102CA000031B022BF5D9032070BD324B9A6A22F028
:102CB0007C72296842EA01529A626A68013AC2F358
:102CC0000802A9680139490289B20A43E968013951
:102CD000090401F4FE010A4329690139090601F0DA
:102CE000FE410A431A64DA6A22F4406269690A43BF
:102CF000DA62DA6A22F40072A9690A43DA62DA6AED
:102D000022F48072DA625A6C6FF3CF02E96942EA08
:102D1000C1025A64DA6A42F48072DA62C6B91A46AB
:102D2000DB6A43F48003D362124A136843F0805392
:102D3000136001F03DFA04460E4B1B6813F0005F70
:102D400014D101F035FA001B0228F5D90320ABE7B6
:102D5000012E05D0074AD36A43F08073D362E3E7BC
:102D6000044AD36A43F40003D362DDE700209BE703
:102D70000120704700440258F8B50446036813F078
:102D8000006F30D0836EB3F5001F26D00ED8ABB1E4
:102D9000B3F5801F07D102210830FFF7E5FE054695
:102DA00095B12E4621E0012635461EE0B3F5401FC1
:102DB00001D1002508E00126354616E09F4AD36A76
:102DC00043F40033D36200259C4A136D23F440136F
:102DD000A16E0B431365002607E002212830FFF7A0
:102DE00047FF0546DCE700263546236813F4807F5D
:102DF0001DD0A36D042B3AD801A252F823F000BFD6
:102E0000152E0008532E0008612E00081F2E000802
:102E10001F2E0008894AD36A43F40033D3624DBBA6
:102E2000864A136D23F00703A16D0B4313652368D6
:102E300013F4007F3FD0E36D802B2ED01FD833B327
:102E4000402B19D1002104F10800FFF78DFE054643
:102E500029E0002104F10800FFF786FE0546DEE7C1
:102E6000002104F12800FFF703FF0546D7E70126FC
:102E70003546DCE72E46DAE7012635461BE0C02B57
:102E800011D0B3F5807F0ED00126354613E06B4A92
:102E9000D36A43F40033D36205E0002104F1280033
:102EA000FFF7E6FE0546DDB9644A136D23F4E073CF
:102EB000E16D0B431365236813F4806F33D0D4F8AE
:102EC000A830B3F5800F1FD00FD8BBB1B3F5001FEA
:102ED00008D1002104F10800FFF746FE054619E07D
:102EE0002E46E8E7012635461DE0B3F5C00F11D0A8
:102EF000B3F5000F0ED00126354614E04F4AD36AD1
:102F000043F40033D36205E0002104F12800FFF709
:102F1000AFFE0546E5B9494A936D23F46003D4F842
:102F2000A8100B439365236813F4006F34D0D4F8D2
:102F3000AC30B3F1007F1FD00FD8BBB1B3F1807FAD
:102F400008D1002104F10800FFF70EFE054619E044
:102F50002E46E8E7012635461EE0B3F1407F11D04A
:102F6000B3F1806F0ED00126354615E0334AD36A9F
:102F700043F40033D36205E0002104F12800FFF799
:102F800077FE0546002D33D12C4A936D23F0E06384
:102F9000D4F8AC100B439365236813F0007F13D073
:102FA000E36C202B2ED028D833B1102B22D1234A0A
:102FB000D36A43F40033D3625DBB204AD36C23F061
:102FC0003003E16C0B43D364236813F4805F47D074
:102FD000236EB3F5005F33D020D843B3B3F5805FE1
:102FE00019D1002104F10800FFF7BEFD05462DE0D0
:102FF0002E46D1E701263546E6E7302BDCD0012608
:103000003546E1E7022104F10800FFF7ADFD054672
:10301000D2E72E46D8E70126354621E0B3F5405FDA
:1030200014D0B3F5804F11D00126354618E0034A7D
:10303000D36A43F40033D36208E000BF004402586F
:10304000002104F12800FFF713FE05463DB9944A1C
:10305000136D23F4E043216E0B43136500E02E460D
:10306000236813F4005F17D0636EB3F5003F4FD0B1
:1030700042D843B1B3F5803F3BD1012104F10800B0
:10308000FFF772FD0546002D49D1854A136D23F4E3
:10309000E023616E0B431365236813F4804F19D04E
:1030A000D4F8B030B3F1005F4AD03DD843B1B3F1AA
:1030B000805F36D1012104F10800FFF755FD054678
:1030C000002D44D1764A936D23F0E043D4F8B0103C
:1030D0000B439365236813F4004F47D0236FB3F17C
:1030E000805F36D0B3F1005F54D0BBB301263546C4
:1030F0003CE001263546CFE7B3F5802FC3D0B3F5CA
:10310000A02FC0D0B3F5403FBDD001263546C3E760
:10311000012104F12800FFF7ABFD0546B3E72E4679
:10312000BAE701263546D5E7B3F1804FC8D0B3F1F1
:10313000A04FC5D0B3F1405FC2D001263546C9E7E4
:10314000012104F12800FFF793FD0546B8E72E465C
:10315000C0E7534AD36A43F40033D3620DBB504AED
:10316000136D23F04053216F0B431365236813F055
:10317000807F26D0A36C032B00F28D8001A252F831
:1031800023F000BFB1310008A731000889320008E0
:10319000B1310008012104F10800FFF7E5FC054604
:1031A000DCE72E46E2E73E4AD36A43F40033D362BB
:1031B000002D73D13A4AD36C23F00303A16C0B4367
:1031C000D364236813F4800F6CD1236813F0010FCC
:1031D00000F0E480E36F282B00F2DE8001A252F8B9
:1031E00023F000BF793300089933000899330008B1
:1031F000993300089933000899330008993300087F
:10320000993300086D33000899330008993300089A
:10321000993300089933000899330008993300085E
:10322000993300088B33000899330008993300085C
:10323000993300089933000899330008993300083E
:10324000993300087933000899330008993300084E
:10325000993300089933000899330008993300081E
:10326000993300087933000899330008993300082E
:1032700099330008993300089933000899330008FE
:103280009933000879330008022104F10800FFF7A0
:103290006BFC05468CE70126354692E72E4690E703
:1032A00000440258624A136843F48073136000F0CC
:1032B0007FFF07465E4B1B6813F4807F05D100F04B
:1032C00077FFC01B6428F5D90325002D4AD1594B3F
:1032D0001B6FD4F8B420534013F4407F0CD0554BEF
:1032E0001A6F22F44072196F41F480311967196F17
:1032F00021F4803119671A67D4F8B430B3F5807FB0
:1033000015D08DBBD4F8B43003F44072B2F5407FD1
:103310001ED0484A136923F47C53136145490B6F4F
:10332000D4F8B420C2F30B0213430B674DE700F04F
:103330003FFF07463F4B1B6F13F0020FE1D100F038
:1033400037FFC01B41F288339842F3D90325D8E7F1
:103350003848026922F47C52374901EA13131343B7
:103360000361DBE72E4630E72E462EE7012104F10C
:103370000800FFF7F9FB054635BB2E4A536D23F0D5
:103380003803E16F0B43536508E0012104F1280085
:10339000FFF76EFC0546EFE701263546236813F07C
:1033A000020F21D0A36F052B3DD801A252F823F0C4
:1033B000D9330008CD33000819340008D933000888
:1033C000D9330008D93300082E46E7E7012104F17C
:1033D0000800FFF7C9FB054645BB164A536D23F0AD
:1033E0000703A16F0B435365236813F0040F36D016
:1033F000D4F89430052B00F2158101A252F823F085
:10340000493400083D3400081736000849340008E4
:103410004934000849340008012104F12800FFF76D
:1034200027FC0546D8E701263546DDE72E46DBE7D3
:103430000048025800440258CFFFFF00012104F168
:103440000800FFF791FB0546002D40F0EE80B64ADC
:10345000936D23F00703D4F894100B43936523680E
:1034600013F0200F1DD0D4F89030B3F1005F00F0BE
:10347000F08000F2DF804BB1B3F1805F40F0D78085
:10348000002104F10800FFF76FFB0546002D40F016
:10349000E780A54A536D23F0E043D4F890100B4326
:1034A0005365236813F0400F1DD0D4F89C30B3F55A
:1034B000006F00F0E98000F2D8804BB1B3F5806F67
:1034C00040F0D080002104F10800FFF74DFB0546D5
:1034D000002D40F0E080944A936D23F4E053D4F83B
:1034E0009C100B439365236813F0800F1DD0D4F814
:1034F000A030B3F5804F00F0E28000F2D1804BB1F4
:10350000B3F5005F40F0C980002104F10800FFF727
:103510002BFB0546002D40F0D980834A936D23F4A0
:103520006043D4F8A0100B439365236813F0080F91
:103530000DD0D4F88430B3F5805F00F0C9807A4AAA
:10354000536D23F44053D4F884100B435365236820
:1035500013F0100F0DD0D4F89830B3F5807F00F041
:10356000C180714A936D23F44073D4F898100B43D3
:103570009365236813F4002F1CD0D4F8A430B3F55E
:10358000803F00F0B980B3F5003F08D0002B40F039
:10359000BA80002104F10800FFF7E6FA0546002D85
:1035A00040F0B480604A936D23F44033D4F8A41003
:1035B0000B439365236813F4802F1CD0D4F8883014
:1035C000B3F5001F00F0A480B3F5401F08D0B3F599
:1035D000801F40F0A480544AD36A43F40033D3627E
:1035E000002D40F09F80504A536D23F44013D4F8CF
:1035F00088100B435365236813F4803F00F0AC80C0
:10360000236D002B00F09280B3F5803F00F09C808A
:1036100001263546A0E0012104F12800FFF728FB30
:10362000054611E70126354619E72E4617E701261C
:10363000354636E7B3F1804F3FF428AFB3F1A04FE2
:103640003FF424AFB3F1405F3FF420AF012635468D
:1036500027E7022104F12800FFF70AFB054615E7DA
:103660002E461EE7012635463DE7B3F5805F3FF461
:103670002FAFB3F5A05F3FF42BAFB3F5406F3FF42E
:1036800027AF012635462EE7022104F12800FFF777
:10369000EFFA05461CE72E4625E70126354644E7A6
:1036A000B3F5004F3FF436AFB3F5204F3FF432AFE0
:1036B000B3F5C04F3FF42EAF0126354635E7022162
:1036C00004F12800FFF7D4FA054623E72E462CE73D
:1036D000022104F12800FFF7CBFA00283FF42FAFB6
:1036E00001262CE7022104F12800FFF7C1FA002887
:1036F0003FF437AF012634E7022104F12800FFF739
:10370000B7FA05464BE70126354653E72E4651E703
:10371000012104F12800FFF7ABFA054660E7012616
:10372000354668E72E4666E700440258704AD36A79
:1037300043F40033D36275B96D4AD36C23F48033FC
:10374000216D0B43D36407E0022104F10800FFF769
:103750000BFA0546EFE72E46236813F0005F11D100
:10376000236813F4003F28D0D4F88030B3F5807F6D
:1037700014D010D9B3F5007F15D0B3F5407F12D027
:1037800001261AE0022104F12800FFF771FA00284F
:10379000E6D00126E4E733B101260EE0544AD36AAD
:1037A00043F40033D362002D69D1514A536D23F4A1
:1037B0004073D4F880100B435365236813F4801FC3
:1037C00006D04B4A136D23F00043616F0B43136522
:1037D000236813F0805F07D0454A136923F48043C0
:1037E000D4F8B8100B431361236813F4001F06D0FC
:1037F0003F4A136D23F08073E16E0B43136523681A
:1038000013F0804F09D03A4B1A6922F400421A6132
:103810001A69D4F8BC100A431A612368002B06DA2F
:10382000334AD36C23F04053616D0B43D364236858
:1038300013F4000F07D02E4A536D23F44003D4F83D
:103840008C100B435365636813F0010F19D1636843
:1038500013F0020F1ED1636813F0040F23D16368C5
:1038600013F0080F28D1636813F0100F2DD163688F
:1038700013F0200F32D106B101263046F8BD2E4696
:103880009BE7002104F10800FFF76EF90028DED065
:103890000646DCE7012104F10800FFF765F900287E
:1038A000D9D00646D7E7022104F10800FFF75CF9FA
:1038B0000028D4D00646D2E7002104F12800FFF703
:1038C000D7F90028CFD00646CDE7012104F1280022
:1038D000FFF7CEF90028CAD00646C8E7022104F156
:1038E0002800FFF7C5F90028C5D00126C5E700BFAD
:1038F0000044025808B5FFF7F1F8054B1B6AC3F303
:103900000213044AD35C03F01F03D84008BD00BF74
:1039100000440258FC0D010810B4794B9A6A9C6A65
:10392000C4F3053CD96AC1F30011DB6BC3F3CC03CC
:1039300001FB03F314F47C3F00F0DD8002F003028E
:1039400007EE903AF8EE677A012A4BD0022A00F08F
:103950009880002A40F0B280694B1B6813F0200F5A
:1039600023D067490A68C2F3C102664BD34007EE11
:10397000103AF8EE476A07EE10CAB8EE476A86EECC
:10398000867A8B6BC3F3080306EE903AF8EE666A0C
:103990009FED5D6A67EE867A76EEA77AF7EE006AAB
:1039A00077EEA67A27EE277A38E007EE10CAF8EE0F
:1039B000476A9FED566A86EE267A514B9B6BC3F39E
:1039C000080306EE903AF8EE666A9FED4F6A67EEDE
:1039D000867A76EEA77AF7EE006A77EEA67A27EE79
:1039E000277A1BE007EE10CAF8EE476A9FED486A97
:1039F00086EE267A424B9B6BC3F3080306EE903AA1
:103A0000F8EE666A9FED406A67EE867A76EEA77AF0
:103A1000F7EE006A77EEA67A27EE277A384A936B9C
:103A2000C3F3462307EE903AF8EE677AF7EE006AA2
:103A300077EEA67A87EE276ABCEEC66A80ED006A4A
:103A4000936BC3F3064307EE903AF8EE677A77EE8E
:103A5000A67A87EE276ABCEEC66A80ED016A936B90
:103A6000C3F3066307EE903AF8EE677A77EEA67A2C
:103A7000C7EE276AFCEEE66AC0ED026A5DF8044B09
:103A8000704707EE10CAF8EE476A9FED226A86EE8D
:103A9000267A1B4B9B6BC3F3080306EE903AF8EEB5
:103AA000666A9FED196A67EE867A76EEA77AF7EE78
:103AB000006A77EEA67A27EE277AAFE707EE10CAFC
:103AC000F8EE476A9FED126A86EE267A0C4B9B6BE6
:103AD000C3F3080306EE903AF8EE666A9FED0A6AB1
:103AE00067EE867A76EEA77AF7EE006A77EEA67A28
:103AF00027EE277A92E70023036043608360BDE7E7
:103B0000004402580090D003000000390024744C97
:103B10000024744A20BCBE4B10B4794B9A6A9C6A4C
:103B2000C4F3055CD96AC1F300215B6CC3F3CC0319
:103B300001FB03F314F07C7F00F0DD8002F0030250
:103B400007EE903AF8EE677A012A4BD0022A00F08D
:103B50009880002A40F0B280694B1B6813F0200F58
:103B600023D067490A68C2F3C102664BD34007EE0F
:103B7000103AF8EE476A07EE10CAB8EE476A86EECA
:103B8000867A0B6CC3F3080306EE903AF8EE666A89
:103B90009FED5D6A67EE867A76EEA77AF7EE006AA9
:103BA00077EEA67A27EE277A38E007EE10CAF8EE0D
:103BB000476A9FED566A86EE267A514B1B6CC3F31B
:103BC000080306EE903AF8EE666A9FED4F6A67EEDC
:103BD000867A76EEA77AF7EE006A77EEA67A27EE77
:103BE000277A1BE007EE10CAF8EE476A9FED486A95
:103BF00086EE267A424B1B6CC3F3080306EE903A1E
:103C0000F8EE666A9FED406A67EE867A76EEA77AEE
:103C1000F7EE006A77EEA67A27EE277A384A136C19
:103C2000C3F3462307EE903AF8EE677AF7EE006AA0
:103C300077EEA67A87EE276ABCEEC66A80ED006A48
:103C4000136CC3F3064307EE903AF8EE677A77EE0B
:103C5000A67A87EE276ABCEEC66A80ED016A136C0D
:103C6000C3F3066307EE903AF8EE677A77EEA67A2A
:103C7000C7EE276AFCEEE66AC0ED026A5DF8044B07
:103C8000704707EE10CAF8EE476A9FED226A86EE8B
:103C9000267A1B4B1B6CC3F3080306EE903AF8EE32
:103CA000666A9FED196A67EE867A76EEA77AF7EE76
:103CB000006A77EEA67A27EE277AAFE707EE10CAFA
:103CC000F8EE476A9FED126A86EE267A0C4B1B6C63
:103CD000C3F3080306EE903AF8EE666A9FED0A6AAF
:103CE00067EE867A76EEA77AF7EE006A77EEA67A26
:103CF00027EE277A92E70023036043608360BDE7E5
:103D0000004402580090D003000000390024744C95
:103D10000024744A20BCBE4BF0B583B000236BE096
:103D200085685E000324B44025EA0405CC68B440ED
:103D30002C438460456825EA0C054C68C4F30014E4
:103D40009C402C43446069E0DD08083550F825406C
:103D500003F0070C4FEA8C0C4FF00F0E0EFA0CFE1E
:103D600024EA0E0E0C6904FA0CF444EA0E0440F83E
:103D700025406BE0092400E0002404FA0EF42C43F3
:103D80000CF1020C694D45F82C404FF0B044256809
:103D9000D44325EA02064F6817F4801F01D042EA97
:103DA00005064FF0B0452E606D6804EA05064F68C1
:103DB00017F4001F01D042EA05064FF0B0456E60CF
:103DC000D5F8845004EA05064F6817F4003F01D087
:103DD00042EA05064FF0B045C5F88460D5F880503A
:103DE0002C404E6816F4803F01D042EA05044FF0A3
:103DF000B042C2F8804001330A6832FA03F400F09E
:103E000092804FF0010C0CFA03FC1CEA0202F2D083
:103E10004C6804F00304013C012C81D94C6804F087
:103E20000304032C0CD0C4685D004FF0030C0CFAA3
:103E300005FC24EA0C0C8C68AC4044EA0C04C46019
:103E40004C6804F00304022C3FF47EAF04684FEA90
:103E5000430E4FF0030C0CFA0EFC24EA0C0C4C68D9
:103E600004F0030404FA0EF444EA0C0404604C6801
:103E700014F4403FBFD02E4CD4F8F45045F0020566
:103E8000C4F8F450D4F8F44004F002040194019C06
:103E90004FEA930C0CF10205244C54F8255003F022
:103EA000030E4FEA8E0E0F2404FA0EF425EA0405E1
:103EB000204CA0423FF460AF04F58064A04222D0C1
:103EC00004F58064A04220D004F58064A0421ED096
:103ED00004F58064A0421CD004F58064A0421AD08E
:103EE00004F58064A04218D004F58064A04216D086
:103EF00004F58064A04214D004F58064A0423FF42D
:103F000039AF0A2439E7012437E7022435E70324CF
:103F100033E7042431E705242FE706242DE707249F
:103F20002BE7082429E703B0F0BD00BF00040058C8
:103F300000440258000002580AB181617047090428
:103F400081617047436901EA030221EA030141EA02
:103F500002418161704700002030054B53F820205A
:103F6000044B9A4201D0012070470020704700BFE7
:103F7000006402580003008041F44071014B43F893
:103F8000201070470064025838B50446224BDB68A5
:103F900003F00703062B07D01F4BDB6803F03F033A
:103FA000834236D0012038BD1B4AD36823F03F033B
:103FB0000343D36000F0FCF80546174B5B6813F42D
:103FC000005F07D100F0F4F8431BB3F57A7FF4D912
:103FD0000120E8E72E2C18BF1E2C08D02D2C14BF72
:103FE000002301231D2C02D00BB90020DBE700F0D9
:103FF000DFF80446084BDB6813F4803F07D100F07C
:10400000D7F8001BB0F57A7FF4D90120CBE7002068
:10401000C9E70020C7E700BF00480258002804DBBA
:104020000901C9B2044B1954704700F00F0009018F
:10403000C9B2024B1954704700E400E014ED00E0EF
:1040400000B500F00700C0F1070CBCF1040F28BF59
:104050004FF0040C031D062B0FD9C31E4FF0FF3E7B
:104060000EFA0CF021EA000199400EFA03FE22EA52
:104070000E0241EA02005DF804FB0023EEE70000B7
:104080000649CB6823F4E0631B041B0C000200F418
:10409000E0600343024A1A43CA60704700ED00E043
:1040A0000000FA0510B50446054BD868C0F302209D
:1040B000FFF7C6FF01462046FFF7B0FF10BD00BF67
:1040C00000ED00E00138B0F1807F0BD24FF0E0232B
:1040D0005861054AF02182F82310002098610722D8
:1040E0001A6170470120704700ED00E0104B1B780B
:1040F0000BB90120704710B504464FF47A70B0FB3D
:10410000F3F30C4A1068B0FBF3F0FFF7DBFF68B97C
:104110000F2C01D901200AE0002221464FF0FF3088
:10412000FFF7C0FF044B1C60002000E0012010BD21
:104130002C000024380000243000002410B5032097
:10414000FFF79EFFFEF784FA0F498B69C3F3032341
:104150000E4AD35C03F01F03D8408B6903F00F03B2
:10416000D35C03F01F0320FA03F3094A1360094BE1
:1041700018600F20FFF7BAFF10B10124204610BDD0
:104180000446FCF75FFEF9E700440258FC0D010805
:104190003400002438000024034B1B78034A1168C4
:1041A0000B441360704700BF2C000024704E0024A5
:1041B000014B1868704700BF704E0024014B18680F
:1041C000000C70470010005C034A536823F460033E
:1041D00003435360704700BF00040058026852E870
:1041E000003F23F4907342E800310029F6D10268C1
:1041F00002F1080353E8001F0D4B0B40083242E860
:1042000000310029F3D1C36E012B06D02023C0F862
:104210008C300023C36643677047026852E8003F52
:1042200023F0100342E800310029F6D1EEE700BF89
:10423000FEFFFFEF70B586B0044683680269134342
:1042400042691343C269134301680868C34A0240C4
:104250001A430A602268536823F44053E1680B4311
:104260005360A1692268BE4B9A4201D0236A194368
:104270009068BC4B03400B4393602268D36A23F0E1
:104280000F03616A0B43D3622368B74A934221D07C
:10429000B64A934200F0DA80B54A934200F0F880C3
:1042A000B44A934200F01681B34A934200F034813D
:1042B000B24A934200F06A81B14A934200F0CE8143
:1042C000B04A934200F0EC81A54A934200F00A8282
:1042D000802266E0AC4A526D02F03802282A5FD88C
:1042E00001A151F822F000BF8D430008A14300084E
:1042F000A1430008A1430008A1430008A14300080E
:10430000A1430008A143000829470008A143000871
:10431000A1430008A1430008A1430008A1430008ED
:10432000A1430008A143000891430008A1430008ED
:10433000A1430008A1430008A1430008A1430008CD
:10434000A1430008A143000895430008A1430008C9
:10435000A1430008A1430008A1430008A1430008AD
:10436000A1430008A143000899430008A1430008A5
:10437000A1430008A1430008A1430008A14300088D
:10438000A1430008A14300089D430008012208E062
:10439000082206E0102204E0202202E0402200E091
:1043A00080226F498B4200F0D181E069B0F5004F67
:1043B00000F07282202A00F2FC82202A00F246835A
:1043C00001A353F822F000BFEB490008F7490008A9
:1043D0004D4A00084D4A0008FD4900084D4A0008B2
:1043E0004D4A00084D4A0008074A00084D4A000897
:1043F0004D4A00084D4A00084D4A00084D4A000841
:104400004D4A00084D4A0008114A00084D4A00086C
:104410004D4A00084D4A00084D4A00084D4A000820
:104420004D4A00084D4A00084D4A00084D4A000810
:104430004D4A00084D4A00084D4A00084D4A000800
:104440004D4A00084D4A0008294A00084E4A526D5C
:1044500002F00702052A19D801A151F822F000BF85
:10446000794400082D4700087D4400088144000875
:104470008544000889440008002292E7082290E75A
:1044800010228EE720228CE740228AE7802288E7EC
:104490003D4A526D02F00702052A19D801A151F8D0
:1044A00022F000BFBD44000831470008C1440008A5
:1044B000C5440008C9440008CD440008002270E744
:1044C00008226EE710226CE720226AE7402268E7A4
:1044D000802266E72C4A526D02F00702052A19D89D
:1044E00001A151F822F000BF01450008354700083E
:1044F00005450008094500080D450008114500085C
:1045000000224EE708224CE710224AE7202248E723
:10451000402246E7802244E71B4A526D02F0070220
:10452000052A19D801A151F822F000BF454500081D
:1045300039470008494500084D4500085145000825
:104540005545000800222CE708222AE7102228E718
:10455000202226E7402224E7802222E7F369FFCFCA
:10456000000C0058FFF4FF1100100140004400400F
:1045700000480040004C0040005000400014014042
:1045800000780040007C004000440258BD4A526D53
:1045900002F03802282A5FD801A151F822F000BFAA
:1045A0004546000859460008594600085946000883
:1045B000594600085946000859460008594600085F
:1045C0003D4700085946000859460008594600086A
:1045D000594600085946000859460008594600083F
:1045E000494600085946000859460008594600083F
:1045F000594600085946000859460008594600081F
:104600004D4600085946000859460008594600081A
:1046100059460008594600085946000859460008FE
:1046200051460008594600085946000859460008F6
:1046300059460008594600085946000859460008DE
:10464000554600080122ACE60822AAE61022A8E698
:104650002022A6E64022A4E68022A2E6894A526DE4
:1046600002F00702052A19D801A151F822F000BF73
:1046700089460008414700088D4600089146000819
:10468000954600089946000800228AE6082288E636
:10469000102286E6202284E6402282E6802280E6FE
:1046A000784A526D02F00702052A19D801A151F883
:1046B00022F000BFCD46000845470008D14600085B
:1046C000D5460008D9460008DD460008002268E605
:1046D000082266E6102264E6202262E6402260E6B6
:1046E00080225EE602F50E32926D02F00702052A84
:1046F00018D801A151F822F01147000849470008D5
:1047000015470008194700081D4700082147000801
:10471000022246E6082244E6102242E6202240E633
:1047200040223EE680223CE604223AE6042238E6B5
:10473000042236E6042234E6042232E6042230E67D
:1047400004222EE604222CE604222AE6202A47D858
:10475000022AC0F06D81023A1E2A00F26B8101A389
:1047600053F822F043480008354A00084F48000833
:10477000354A0008354A0008354A000859480008FB
:10478000354A0008354A0008354A0008354A00080D
:10479000354A0008354A0008354A000863480008D1
:1047A000354A0008354A0008354A0008354A0008ED
:1047B000354A0008354A0008354A0008354A0008DD
:1047C000354A0008354A0008354A0008354A0008CD
:1047D000354A0008354A0008354A00087B48000879
:1047E000402A2CD14FF40040626A274B33F8122044
:1047F000B0FBF2F3656805EB4501994200F21C81BC
:10480000B3EB053F00F21A81002633463146FBF731
:104810009FFD090241EA106100026B08C0182A4698
:10482000334641F10001FBF793FDA0F54072174BB1
:104830009A4200F205812368D860304607E10120E2
:1048400005E1FFF757F80028CED10020FFE003A8CC
:10485000FFF762F80498F6E76846FFF75DF90198FC
:10486000F1E7084B1B6813F0200F08D0054B1B68BD
:10487000C3F3C1030648D840B6E70648B4E7044886
:10488000B2E700BF00440258D40D0108FFFC0F003E
:104890000090D00300093D00202A47D8202A00F2CA
:1048A000D18001A353F822F06D490008794900082E
:1048B000454A0008454A00087F490008454A000863
:1048C000454A0008454A000889490008454A000849
:1048D000454A0008454A0008454A0008454A00087C
:1048E000454A0008454A000893490008454A00081F
:1048F000454A0008454A0008454A0008454A00085C
:10490000454A0008454A0008454A0008454A00084B
:10491000454A0008454A0008454A0008454A00083B
:10492000454A0008454A0008AB490008402A1BD107
:10493000626A4D4B33F81230B0FBF3F062685308F3
:1049400003EB4003B3FBF2F3A3F110014FF6EF7258
:10495000914279D89AB222F00F02C3F34203134373
:104960002268D360002072E0012070E0FEF7D8F8E2
:104970000028DDD100206AE0FEF7E4F8F8E703A89C
:10498000FEF7CAFF0498F3E76846FFF7C5F80198F9
:10499000EEE7364B1B6813F0200F08D0334B1B6833
:1049A000C3F3C1033248D840C2E73248C0E73048B9
:1049B000BEE7402A17D14FF40040626A2A4B33F811
:1049C0001230B0FBF3F0636800EB5300B0FBF3F080
:1049D000A0F110024FF6EF739A4242D8236880B2DA
:1049E000D860002033E0012031E0FEF799F800287C
:1049F000E3D100202BE0FEF7A5F8F8E703A8FEF7C7
:104A00008BFF0498F3E76846FFF786F80198EEE716
:104A1000164B1B6813F0200F08D0144B1B68C3F310
:104A2000C1031348D840C8E71248C6E71048C4E796
:104A300001200CE001200AE0012008E0012006E04E
:104A4000012004E0012002E0012000E00120012318
:104A5000A4F86A30A4F8683000236367A36706B03F
:104A600070BD0120F3E700BFD40D010800440258D7
:104A70000090D00300093D00836A13F0080F06D0B0
:104A80000268536823F40043816B0B435360836ACD
:104A900013F0010F06D00268536823F40033C16A93
:104AA0000B435360836A13F0020F06D00268536809
:104AB00023F48033016B0B435360836A13F0040FBC
:104AC00006D00268536823F48023416B0B43536084
:104AD000836A13F0100F06D00268936823F48053A2
:104AE000C16B0B439360836A13F0200F06D00268FA
:104AF000936823F40053016C0B439360836A13F0B3
:104B0000400F0AD00268536823F48013416C0B43B2
:104B10005360436CB3F5801F0BD0836A13F0800F92
:104B200006D00268536823F40023C16C0B43536022
:104B300070470268536823F4C003816C0B435360D1
:104B4000EBE72DE9F84305460E4617469946DDF892
:104B500020802B68DC6936EA04040CBF01240024A1
:104B6000BC423AD1B8F1FF3FF3D0FFF721FBA0EBF5
:104B70000900404534D8B8F1000F33D02B681A68CB
:104B800012F0040FE5D0B6F1400218BF0122802ECA
:104B9000DFD0002ADDD0DA6912F0080F11D1DA690E
:104BA00012F4006FD5D04FF400621A622846FFF766
:104BB00015FB2023C5F89030002385F884300320AE
:104BC0000CE008241C622846FFF708FBC5F890405B
:104BD000002385F88430012000E00020BDE8F88340
:104BE0000320FBE70320F9E72DE9F04182B01E46E0
:104BF000D0F88830202B5BD104460D469046002A21
:104C000018BF002901D1012053E00023C0F89030E3
:104C10002123C0F88830FFF7CBFA0746A4F8548068
:104C2000A4F85680A368B3F5805F02D04FF0000867
:104C300016E0236943B34FF0000811E02023C4F8C5
:104C40008830032035E038F8023B2268C3F30803BC
:104C50009362B4F8562092B2013A92B2A4F8562068
:104C6000B4F856309BB293B100963B4600228021A7
:104C70002046FFF766FF0028E0D1002DE3D015F8AD
:104C8000012B23689A62E4E7A8460025E8E700962E
:104C90003B46002240212046FFF753FF18B920234E
:104CA000C4F8883005E02023C4F88830032000E0F1
:104CB000022002B0BDE8F08130B583B00446002385
:104CC000C0F89030FFF774FA05462268126812F0B7
:104CD000080F10D123681B6813F0040F28D120237C
:104CE000C4F88830C4F88C300020E066206784F86F
:104CF000840003B030BD6FF07E4300930346002272
:104D00004FF400112046FFF71CFF0028E2D0226874
:104D100052E8003F23F0800342E800310029F6D139
:104D20002023C4F88830002384F884300320E0E78F
:104D30006FF07E4300932B4600224FF48001204603
:104D4000FFF7FFFE0028CAD0226852E8003F23F494
:104D5000907342E800310029F6D1226802F108037D
:104D600053E8003F23F00103083242E800310029F4
:104D7000F3D12023C4F88C30002384F8843003203E
:104D8000B7E778B310B50446D0F888300BB32423C6
:104D9000C4F888302268136823F001031360A36A03
:104DA000E3B92046FFF746FA012811D0226853687C
:104DB00023F4904353602268936823F02A0393609E
:104DC0002268136843F0010313602046FFF774FF65
:104DD00010BD80F88430FCF747F8D8E72046FFF78D
:104DE0004BFEDEE701207047436E2BB90123A0F88C
:104DF0006A30A0F86830704730B403689A68C2F32C
:104E000042629968490F094D6B5C1B01084C615C5B
:104E100093FBF1F3A0F86A30AB5C1B01A25C93FB3F
:104E2000F2F3A0F8683030BC704700BFF40D010801
:104E3000EC0D010890F88430012B18D0012380F884
:104E400084302423C0F8883003681A68196821F078
:104E50000101196022F000520023436601680A60D4
:104E60002022C0F8882080F884301846704702203D
:104E7000704738B590F88430012B1DD004460123CB
:104E800080F884302423C0F8883003681D681A68CD
:104E900022F001021A600268936823F0604319430C
:104EA0009160FFF7A1FF23681D602023C4F88830BC
:104EB000002084F8840038BD0220FCE738B590F863
:104EC0008430012B1DD00446012380F88430242334
:104ED000C0F8883003681D681A6822F001021A6061
:104EE0000268936823F0606319439160FFF77CFFC9
:104EF00023681D602023C4F88830002084F88400D3
:104F000038BD0220FCE700002D4BD3F8882042F486
:104F10007002C3F888201A6942F010021A61294B06
:104F20001B6803F00F03062B06D8264A136823F0EC
:104F30000F0343F007031360234B1A6842F001028A
:104F40001A6000221A611968204A0A401A601D4B33
:104F50001B6813F0080F06D01A4A136823F00F03DA
:104F600043F007031360184B00229A61DA611A625A
:104F7000174999621749D962174919635A639963A6
:104F8000DA6319645A64196821F4802119601A6679
:104F90004FF0B042D2F8E43043F48043C2F8E4303A
:104FA0000E4B1B686FF30F03B3F1005F03D20C4B82
:104FB0000122C3F808210B4B43F2D2021A6070475A
:104FC00000ED00E000200052004402587FEDF6EAB8
:104FD000000202020000FF01800201010010005CDB
:104FE000008000510040005270B5044643890E2BEA
:104FF0001CD90D46C37B1BB991F834300133C37300
:1050000060688689037813F0010F0AD0012B12D053
:1050100006221E4908F082FA18B9637B43F00803A0
:105020006373082E12D0B6F5C16F1FD0204601F071
:1050300099FD002070BD4378002BF2D183785E2B60
:10504000EFD1637B43F010036373EAE795F83130E7
:1050500013F0080FEAD00E21204601F03DFD002894
:10506000E4D12946204605F033FAE2E795F83130DD
:1050700013F0080FDAD00E21204601F02DFD002894
:10508000D4D12946204607F017F9D2E7140E0108BB
:105090002DE9F04105460C4616461F46BDF818009E
:1050A00002F052FF80460E21204601F010FDE8B9C3
:1050B0006168A1F80C803B680B60BB888B8033680B
:1050C000C1F80630B3884B8195F83030062B05D1F6
:1050D000AB69214628469847BDE8F081054B4FF45F
:1050E00099720549054808F051F9F1E76FF00100A0
:1050F000F2E700BF2CEA000864EA000804E90008AF
:1051000038B504460D4649B9074BFF220749084800
:1051100008F03CF902E00023E367E4681CB1E36FA8
:10512000AB42FAD1F7E738BD98EA0008CCEA0008AC
:1051300004E9000838B5054620B12B7D012B09D1C3
:10514000012417E00D4B40F211120D490D4808F0F3
:105150001DF9F2E7094B4FF489720B49094808F031
:1051600015F9EDE7094B53F8243029461868FFF785
:10517000C7FF0134032CF5D938BD00BF98EA0008F9
:10518000F4EA000804E9000800EB00081C0E01081E
:1051900010B50446037D012B04D02146022005F002
:1051A0000DF910BD034BDF220349044808F0EEF867
:1051B000F3E700BF98EA000818EB000804E90008CC
:1051C00038B5044690B1237D042B17D0072B1DD092
:1051D000032B2CD1204602F01BFB0546F0B905231A
:1051E0002375204602F092FC284638BD114B4FF43F
:1051F000CE721149114808F0C9F8E4E7204602F0E0
:1052000007FB054650B905232375EAE7204602F05F
:10521000FFFA054610B909232375E2E7B5F1FF3F10
:10522000E2D1638B43F0080363830025DCE70025AC
:10523000DAE700BF98EA0008F4EA000804E9000889
:10524000094B186878B110B501E0204654B1C46824
:10525000438B13F0080FF8D023F008034383FFF7C4
:10526000AFFFF2E710BD70477C4E002408B507F091
:105270008DFF024B0343024A138008BD00C0FFFFAD
:105280004000002410B50446037D012B04D02146C4
:10529000012005F093F810BD034BD42203490448C4
:1052A00008F074F8F3E700BF98EA000834EB000850
:1052B00004E9000838B5044690B1656A218D681884
:1052C000E26AB4F832C0BCF5866F94BF02EB0C03FF
:1052D00002F58663C31A002B0ADB6185801A38BD8C
:1052E0000E4B40F2A6320E490E4808F04FF8E4E7A4
:1052F000AB1A002B03DD002363850020EFE7551B6D
:10530000B5F5803F01D26585F7E7044B40F2B63230
:105310000549044808F03AF8F5E700BF98EA0008A4
:1053200048EB000804E900086CEB000838B5B0B1A0
:105330000C460546037D012B19D02B8D191989B216
:10534000B1F5066F01D88B4219D94FF406632B854E
:105350002846FFF7AFFFB0F5067F12D238BD0D4BE0
:1053600040F2CF320C490D4808F010F8F6E7094B2F
:1053700040F2D2320A49094808F008F8DDE72985E9
:10538000E6E76B8B43F002036B83284602F0BEFB1B
:10539000E4E700BF98EA000888EB000804E9000889
:1053A000A0EB000850B110B50446406808B101F008
:1053B000D9FB2146032005F001F810BD704738B134
:1053C00010B50468FFF7EEFF2046002CF9D110BDA0
:1053D0007047000038B5054688B1032004F0B8FFD7
:1053E000044650B128686968AA68EB68206061606B
:1053F000A260E360606801F021FD204638BD044BE7
:1054000040F282620349044807F0C0FFE5E700BFAD
:1054100098EA0008C8EB000804E9000808B530B1B4
:10542000074B1868074A12681044186008BD064BFD
:1054300040F6AF020549064807F0A8FFF0E700BFB5
:105440003C000024884E002498EA0008E4EB0008A1
:1054500004E9000838B505460C465AB144B1238D1D
:1054600033B1282B0ED9283B9BB29D4228BF1D4645
:10547000284638BD044B40F6C5020449044807F0ED
:1054800085FFEBE70023F0E798EA000800EC00084E
:1054900004E9000810B50446406F18B1FFF78FFF0C
:1054A0000023636710BD000010B508B30446037DF8
:1054B000002B18BF0A2B1AD0012B18D0806F18B1FF
:1054C00001F050FB0023A367636F13B12046FFF781
:1054D000E1FF4FF6FF732386E06EFFF770FF206F4A
:1054E000FFF76DFF0023E3662367A4F8683010BD63
:1054F000034B40F651020349034807F047FFF6E724
:1055000098EA000828EC000804E9000838B50546C8
:105510000C4649B185B12B68A34215D0CBB1DA68EE
:10552000A24214D01346F9E7254B40F683022549E1
:10553000254807F02BFFEDE7214B40F68402234975
:10554000214807F023FFE6E7DB682B6001E0E26813
:10555000DA600023E3602046FFF7A6FF237D0A2BD5
:1055600018BF012B03D0638B13F0010F21D1237DD2
:10557000012B1AD0E36E33B1114B40F6930214495C
:10558000114807F003FF236F33B10D4B40F694022F
:1055900010490D4807F0FAFE636F33B1084B40F62F
:1055A00096020D49084807F0F1FE00232375E382B7
:1055B00038BD43F002036383204602F0A7FAD6E722
:1055C00098EA000844EC000804E9000860EC0008D0
:1055D00080EC000898EC0008B4EC00082DE9F047D6
:1055E00084B0F8B10D460446037D012B22D0237D03
:1055F0000A2B27D0D4F85080D4F82490D4F89060A7
:105600002769002B47D1B4F816A0BAF1000F4CD08F
:105610002D4B1B68A3421DD013B3DA68A2421DD0E4
:105620001346F9E7294B40F23D222949294807F062
:10563000ADFE2DE0254B4FF410722749254807F0A9
:10564000A5FED4E721462548FFF760FF2046FFF777
:1056500019FE1DE0DA681C4B1A6001E0E268DA60AE
:105660000025E560AA46206F08B1FFF7A8FEE06EAE
:1056700008B1FFF7A4FE606F08B1FFF7A0FEB5B94F
:105680002046FFF7FFFD1EB16FF00C013846B04712
:1056900004B0BDE8F087B4F816A021461048FFF723
:1056A00035FF104B01221A70DDE70025DBE7231DD3
:1056B000228B0292CDF804A0009323464A4641462D
:1056C000204602F0A1F9DBE7844E002498EA0008A6
:1056D000CCEC000804E90008E8EC0008784E00244F
:1056E0007C4E0024764E002408B50121FFF776FF9A
:1056F00008BD000008B50A4B1B684FF0000C60465F
:1057000000E0DB6843B1196A064A1268521A624522
:10571000F7D394461846F4E708B1FFF7E5FF08BD54
:10572000784E0024884E002410F0800F01D108B973
:1057300070477F2038B50138C2B20F4B1B684FF05D
:10574000000C604607E00D4A1268186AA2EB000CD4
:105750000A461846DB685BB1597D9142F3D3F9D113
:10576000064C24681D6AA4EB050EE645F2D3EAE771
:1057700008B1FFF7B9FF38BD7C4E0024884E0024E5
:1057800070B50C46054660B90A4B4FF410620A49E1
:105790000A4807F0FBFD04E0E6682046FFF7A4FF97
:1057A00034462CB122682B689A42F5D0E468F8E7B9
:1057B00070BD00BF98EA00081CED000804E900086D
:1057C00000B338B50D460446036803B938BD0E4B27
:1057D0001968FFF7D5FF0D4B19682046FFF7D0FF7A
:1057E000002DF3D02B68002BF0D0094B1B6800E094
:1057F000DB68002BEAD0196822689142F8D12A6848
:105800001A60F5E7704700BF7C4E0024844E0024E8
:10581000804E002438B50446A0F10803DBB2012B0A
:1058200004D8104B1B680021084608E00E4B40F2DC
:10583000DD620E490E4807F0A9FDF2E7DB685BB1B7
:105840001A7DA242FAD10B4A12681D6A521B8A4283
:10585000F4D311461846F1E710B10021FFF7BEFE60
:1058600038BD00BF7C4E002498EA000850ED0008C7
:1058700004E90008884E002438B50546012004F0EC
:1058800067FD044660B39C220021204607F070FEAD
:1058900065754FF48663A4F864304FF40662628540
:1058A0002285FF22E2724FF4067262860622A4F875
:1058B0004020E2874FF6FF7222860122A4F848209A
:1058C0001A4A126822621A4A1278A277A4F84A3059
:1058D000184BC4F88430184BC4F89430204638BDB7
:1058E000FFF7AEFCFFF706FF012004F031FD044690
:1058F0000028C8D10920FFF78DFF012004F028FD02
:1059000004460028BFD10820FFF784FF012004F0DF
:105910001FFD04460028B6D12846FFF705FF0120E9
:1059200004F016FD04460028ADD1D7E7884E0024C8
:10593000744E0024CD5A000800DD6D0030B585B0EE
:105940000D46044630B3002D30D0237D072B18BF01
:10595000042B2BD1A36F2BB3638B13F0100F39D013
:10596000231D228B0292E28A019200932346626AEF
:10597000216D204602F048F82046FFF795FD3A4B8E
:105980001B68A3422ED0002B32D0DA68A2422DD061
:105990001346F8E7354B4FF4AF723549354807F0F9
:1059A000F5FCD0E7238DB3F5066FD5D1237D012B10
:1059B0003DD0022B47D0002B51D1E38A002B30D0B1
:1059C0002D4B1B68A34224D04BB3DA68A24224D0EB
:1059D0001346F9E7254B4FF4B2722849254807F0E2
:1059E000D5FCBDE7DA68204B1A6001E0E268DA60B6
:1059F0000023E360224B01221A70224B1B68A34252
:105A000004D02046FFF73EFC00200EE003F042FFEA
:105A1000FAE7DA68184B1A6001E0E268DA600023FE
:105A2000E3602046FFF72EFC002005B030BD204685
:105A3000FFF780FB21461448FFF768FD2046FFF77B
:105A4000A7FB0020F1E721460748FFF75FFD0C4B5D
:105A500001221A702046FFF715FC0020E5E72046DA
:105A6000FFF7AEFBE1E700BF7C4E002498EA000898
:105A700060ED000804E90008844E002480ED000871
:105A8000764E0024B84E0024804E002408B560B144
:105A90000346027D012A03D0428B42F0100242836A
:105AA00001211846FFF74AFF08BD054B4FF4F47279
:105AB0000449054807F06AFC6FF00F00F4E700BFE7
:105AC00098EA00089CED000804E9000810B551B1FF
:105AD000144608468AB11189FFF728FC204601F0D8
